{
  "_format": "hh-sol-artifact-1",
  "contractName": "MyToken",
  "sourceName": "contracts/plus.sol",
  "abi": [
    {
      "inputs": [],
      "stateMutability": "nonpayable",
      "type": "constructor"
    },
    {
      "anonymous": false,
      "inputs": [
        {
          "indexed": false,
          "internalType": "uint8",
          "name": "version",
          "type": "uint8"
        }
      ],
      "name": "Initialized",
      "type": "event"
    },
    {
      "inputs": [],
      "name": "balanceOf",
      "outputs": [
        {
          "internalType": "uint256",
          "name": "",
          "type": "uint256"
        }
      ],
      "stateMutability": "view",
      "type": "function"
    },
    {
      "inputs": [
        {
          "internalType": "uint256",
          "name": "newBalance",
          "type": "uint256"
        }
      ],
      "name": "setBalance",
      "outputs": [],
      "stateMutability": "nonpayable",
      "type": "function"
    }
  ],
  "bytecode": "0x608060405234801561001057600080fd5b50600280546001600160a01b0319163317905561011b806100326000396000f3fe6080604052348015600f57600080fd5b506004361060325760003560e01c8063722713f7146037578063fb1669ca14604c575b600080fd5b60015460405190815260200160405180910390f35b605b605736600460ce565b605d565b005b6002546001600160a01b0316331460c95760405162461bcd60e51b815260206004820152602660248201527f4f6e6c7920746865206f776e65722063616e20757064617465207468652062616044820152653630b731b29760d11b606482015260840160405180910390fd5b600155565b60006020828403121560de578081fd5b503591905056fea26469706673582212200c53278e14f5143990ffc1badbba97696a56a6718d4dd943514ba0d347ef4b3664736f6c63430008040033",
  "linkReferences": {},
  "deployedLinkReferences": {}
}